:100000000C942A000C9434000C9434000C943400AA
:100010000C9434000C9434000C9434000C94340090
:100020000C9434000C9434000C9434000C94340080
:100030000C9434000C9434000C9434000C94340070
:100040000C9434000C9434000C9434000C94340060
:100050000C94340011241FBECFE5D4E0DEBFCDBF29
:100060000E9436000C9405010C9400006AD085E4CF
:1000700087D08BE585D084E183D083EB81D08CE081
:100080007FD08CE77DD083E77BD044D010D0803008
:10009000E1F38F9381E079D08AEF95E0AFD08F9133
:1000A0006FD0A0E6B0E080E08D938C93EECFDC01C2
:1000B0008AE2A0FD089580E3A1FD089583E2A2FDF8
:1000C000089584E4A3FD089587E3A4FD089588E3DB
:1000D000A5FD089589E3A6FD089583E4A7FD08958D
:1000E00084E3B0FD089585E3B1FD089586E3B2FD94
:1000F000089582E4B3FD089581E3B4FD089582E399
:10010000B5FD089583E3B6FD089581E4B7FD089534
:1001100088270895682F4ED08F939F93862F90E065
:1001200063D048D07F916F9186239723A0E6B0E0FB
:100130007D916C918C939E93709560958623962308
:10014000089588E290E080E382BB939A939887E2D7
:1001500090E080E382BB939A939887E290E080E2FC
:1001600082BB939A939887E290E088E20ED08CE06D
:100170000CD081E00AD08AEF95E086E006D00895A1
:10018000929A08D08BE290E00895929803D087E28B
:1001900090E008958F9390B39F70807F890F82BB0A
:1001A000939A93988F918295807F890F82BB939ABF
:1001B0009398089581E00ED08295B82F82E00AD0FE
:1001C000B80F83E007D08295A82F84E003D0A80F52
:1001D000CD01089598E0990F8A95E9F795BB000045
:1001E000000083B38F7008958F939F9386EE93E002
:1001F00005D09F918F910197B9F70895019700005D
:0E020000000000000000D1F70895F894FFCF31
:02020E000200EC
:00000001FF
