:100000000C942A000C9448000C9448000C9448006E
:100010000C9448000C9448000C9448000C94480040
:100020000C9448000C9448000C9448000C94480030
:100030000C9448000C9448000C9448000C94480020
:100040000C9448000C9448000C9448000C94480010
:100050000C94480011241FBECFE5D4E0DEBFCDBF15
:1000600010E0A0E6B0E0EAE6F1E003C0C895319602
:100070000D92A036B107D1F710E0A0E6B0E001C0C4
:100080001D92A036B107E1F70E9470000C94B300F6
:100090000C940000181619062CF00EC09595879543
:1000A000009751F09C012370307023303105B1F777
:1000B00020E030E0C901089521E030E0C901089551
:1000C000803191054CF021E030E08F31910511F045
:1000D00020E030E0C901089521E030E0C901089531
:1000E0008FEF8ABB14BA83B390E0AC014F715070AC
:1000F0004115510509F1837090708330910581F1AC
:10010000CA0106C09C01237030702330310541F1D3
:10011000959587950097B1F781E090E040315105C2
:1001200074F4482F46604BBB83B390E0AC014F7131
:10013000507041155105F9F647E04BBBF5CF21E072
:1001400030E04F31510511F020E030E0422F440FF4
:10015000282B392B220F220F482B422B4BBBE4CFED
:0A01600080E090E0DBCFF894FFCFC1
:00000001FF
