:100000000C942A000C9434000C9434000C943400AA
:100010000C9434000C9434000C9434000C94340090
:100020000C9434000C9434000C9434000C94340080
:100030000C9434000C9434000C9434000C94340070
:100040000C9434000C9434000C9434000C94340060
:100050000C94340011241FBECFE5D4E0DEBFCDBF29
:100060000E9436000C94A2000C94000084E08EBF25
:100070008FE58DBF8FEF87BB88278ABBDD27D4BB79
:10008000EE27D3B3D69520F4A3B3A695E8F3E160A9
:10009000D69528F4A3B3A695A695E0F3E260D6958D
:1000A00030F4A3B3A695A695A695D8F3E460D695AB
:1000B00038F4A3B3A695A695A695A695D0F3E860C7
:1000C000D69538F4A3B3AA0FAA0FAA0FAA0FD0F39C
:1000D000E061D69530F4A3B3AA0FAA0FAA0FD8F304
:1000E000E062D69528F4A3B3AA0FAA0FE0F3E06468
:1000F000D69520F4A3B3AA0FE8F3E068C9B3992713
:10010000BB27C69520F4C69518F4939501C0C695F3
:10011000C69520F4C69518F4B26001C0C695B92BF7
:10012000C69520F0C69518F0B46001C0C695C69576
:1001300018F0C69520F002C0C69508F4B860BE2736
:08014000B8BB9ECFF894FFCF7D
:00000001FF
