:100000000C942A000C9434000C9434000C943400AA
:100010000C9434000C9434000C9434000C94340090
:100020000C9434000C9434000C9434000C94340080
:100030000C9434000C9434000C9434000C94340070
:100040000C9434000C9434000C9434000C94340060
:100050000C94340011241FBECFE5D4E0DEBFCDBF29
:100060000E9436000C9471000C9400008FE58DBF47
:1000700084E08EBFAFEFAABB992797BBC6B304D06D
:1000800009D005D010D0FACFAFEFABBB0895AA27A7
:10009000ABBB08958FE08C2371E0870F74E6879FD8
:1000A000912D802D089580EF8C23869586958695D9
:1000B000869571E0870F74E6879F912D802D0895B6
:1000C0008F939F9386EE93E005D09F918F91019738
:1000D000B9F7089501970000000000000000D1F773
:0600E0000895F894FFCF23
:00000001FF
