:100000000C942A000C9434000C9434000C943400AA
:100010000C9434000C9434000C9434000C94340090
:100020000C9434000C9434000C9434000C94340080
:100030000C9434000C9434000C9434000C94340070
:100040000C9434000C9434000C9434000C94340060
:100050000C94340011241FBECFE5D4E0DEBFCDBF29
:100060000E9440000C9486010C94000009C000001E
:1000700000000000000000000000000025C01895EE
:100080008FE58DBF84E08EBF8FEF8ABB882787BB4B
:1000900080EF84BBD7D086B38030E9F351D08FEFA7
:1000A0008BBB23D165D002D01AD0F5CF8F9384E0DB
:1000B00089BF85E08EBD8FEF80932D008FEF8093F9
:1000C0002C008F91789408953BD0789418958F9355
:1000D00081E0DCD08AEF95E012D18F910895F7DFAF
:1000E00025D0882784E197D08BBB8F938FEF9FEF2C
:1000F00006D18F918030B1F3803811F517D084E1AB
:1001000084E189D08030E1F38034D1F40FD084E1F0
:1001100082D08030E9F3823099F408D084E17BD03A
:100120008030E9F3803161F423D008958F93AF9349
:10013000A0E6B0E080E08D938C93AF918F9108950D
:100140008F938FEF8BBB8F9101D00895C0DF81E437
:1001500098D08CE496D081E494D082E592D08DE45E
:1001600090D080E28ED08FE48CD08EE48AD0089537
:100170008F9305D080E08BBB16D08F910895A7DFB9
:1001800081E47FD08CE47DD081E47BD082E579D09E
:100190008DE477D080E275D08FE473D086E471D09F
:1001A00086E46FD008958F9380E08FBD8EBD089553
:1001B000DC018AE2A0FD089580E3A1FD089583E2B9
:1001C000A2FD089584E4A3FD089587E3A4FD0895A6
:1001D00088E3A5FD089589E3A6FD089583E4A7FDBE
:1001E000089584E3B0FD089585E3B1FD089586E3A5
:1001F000B2FD089582E4B3FD089581E3B4FD08954E
:1002000082E3B5FD089583E3B6FD089581E4B7FD6B
:10021000089588270895682F4ED08F939F93862F37
:1002200090E063D048D07F916F9186239723A0E61A
:10023000B0E07D916C918C939E9370956095862330
:100240009623089588E290E080E382BB939A939886
:1002500087E290E080E382BB939A939887E290E0F4
:1002600080E282BB939A939887E290E088E20ED076
:100270008CE00CD081E00AD08AEF95E086E006D0D1
:100280000895929A08D08BE290E00895929803D056
:1002900087E290E008958F9396B39F70807F890FD7
:1002A00082BB939A93988F918295807F890F82BBAE
:1002B000939A9398089581E00ED08295B82F82E0AA
:1002C0000AD0B80F83E007D08295A82F84E003D02E
:1002D000A80FCD01089598E0990F8A95E9F795BB8D
:1002E0000000000083B38F7008958F939F9386EE74
:1002F00093E005D09F918F910197B9F708950197E9
:100300000000000000000000D1F70895F894FFCF2E
:020310000200E9
:00000001FF
