:100000000C942A000C9434000C9434000C943400AA
:100010000C9434000C9434000C9434000C94340090
:100020000C9434000C9434000C9434000C94340080
:100030000C9434000C9434000C9434000C94340070
:100040000C9434000C9434000C9434000C94340060
:100050000C94340011241FBECFE5D4E0DEBFCDBF29
:100060000E9440000C9480010C94000009C0000024
:1000700000000000000000000000000020C01895F3
:100080008FE58DBF84E08EBF8FEF8ABB81BB882751
:1000900087BB80EF84BBC9D086B38030E9F31AD028
:1000A000FBCF8F9384E089BF85E08EBD8FEF809377
:1000B0002D008FEF80932C008F917894089535D088
:1000C000789418958F9381E0DAD08AEF95E011D17A
:1000D0008F910895F7DF1FD0882784E18FD080307B
:1000E000E1F3803811F517D084E184E187D08030C6
:1000F000E1F38034D1F40FD084E180D08030E9F393
:10010000823099F408D084E179D08030E9F38031ED
:1001100061F421D008958F93AF93A0E6B0E080E022
:100120008D938C93AF918F9108958F938FEF8BBBAD
:100130008F917BD081E49DD08CE49BD081E499D0D9
:1001400082E597D08DE495D080E293D08FE491D072
:100150008EE48FD008958F9305D080E08BBB16D0AE
:100160008F910895AFDF81E484D08CE482D081E464
:1001700080D082E57ED08DE47CD080E27AD08FE49E
:1001800078D086E476D086E474D008958F9380E0AA
:100190008FBD8EBD0895DC018AE2A0FD089580E345
:1001A000A1FD089583E2A2FD089584E4A3FD0895CE
:1001B00087E3A4FD089588E3A5FD089589E3A6FDDE
:1001C000089583E4A7FD089584E3B0FD089585E3D1
:1001D000B1FD089586E3B2FD089582E4B3FD08956C
:1001E00081E3B4FD089582E3B5FD089583E3B6FD90
:1001F000089581E4B7FD089588270895682F55D0A4
:100200008F939F93862F90E06AD04FD07F916F910C
:1002100086239723A0E6B0E07D916C918C939E930A
:100220007095609586239623089588E290E057D0D4
:1002300080E382BB939A939887E290E05AD080E360
:1002400082BB939A939887E290E053D080E282BB7E
:10025000939A939887E290E04CD088E210D08CE09B
:100260000ED081E00CD08AEF95E043D086E007D035
:100270000895929A0AD08BE290E03BD0089592982C
:1002800004D087E290E035D008958F9396B39F70A5
:10029000807F890F82BB939A93988F918295807FFC
:1002A000890F82BB939A9398089581E00ED082952E
:1002B000B82F82E00AD0B80F83E007D08295A82F2C
:1002C00084E003D0A80FCD01089598E0990F8A9596
:1002D000E9F795BB0000000083B38F7008958F93FA
:1002E0009F9386EE93E005D09F918F910197B9F788
:1002F000089501970000000000000000D1F7089564
:04030000F894FFCF9F
:020304000200F5
:00000001FF
