:100000000C942A000C9448000C9448000C9448006E
:100010000C9448000C9448000C9448000C94480040
:100020000C9448000C9448000C9448000C94480030
:100030000C9448000C9448000C9448000C94480020
:100040000C9448000C9448000C9448000C94480010
:100050000C94480011241FBECFE5D4E0DEBFCDBF15
:1000600010E0A0E6B0E0E8E2F1E003C0C895319608
:100070000D92A036B107D1F710E0A0E6B0E001C0C4
:100080001D92A036B107E1F70E946F000C94920018
:100090000C94000021E030E08031910514F020E064
:1000A00030E0C90108958F71907021E030E08F3108
:1000B000910511F420E030E0C901089580319105E7
:1000C00054F08F71907021E030E08F31910529F468
:1000D00020E030E002C021E030E0C90108950F9334
:1000E0001F938FEF8ABB14BA13B303B383B390E0AB
:1000F0000E945E000F7121E030E00F3111F420E02A
:1001000030E0220F331F412F50E061E040315105B4
:100110000CF060E0262B880F991F880F991F282B61
:080120002BBBE2CFF894FFCFE6
:00000001FF
