:100000000C942A000C9448000C9448000C9448006E
:100010000C9448000C9448000C9448000C94480040
:100020000C9448000C9448000C9448000C94480030
:100030000C9448000C9448000C9448000C94480020
:100040000C9448000C9448000C9448000C94480010
:100050000C94480011241FBECFE5D4E0DEBFCDBF15
:1000600010E0A0E6B0E0E2E9F1E003C0C895319607
:100070000D92A036B107D1F710E0A0E6B0E001C0C4
:100080001D92A036B107E1F70E9489000C94C700C9
:100090000C940000DF93CF9300D0CDB7DEB79A83E6
:1000A000898310C089819A81837090708330910513
:1000B00019F480E090E00DC089819A81959587952B
:1000C0009A83898389819A81181619065CF381E0E5
:1000D00090E00F900F90CF91DF910895DF93CF9331
:1000E00000D0CDB7DEB79A83898389819A81803128
:1000F00091052CF089819A818F31910519F481E065
:1001000090E002C080E090E00F900F90CF91DF91DF
:100110000895DF93CF9300D000D000D0CDB7DEB7E5
:100120008AE390E02FEFFC01208384E390E0FC0160
:10013000108283E390E0FC018081882F90E08F7132
:1001400090709A83898389819A810E944A009C8356
:100150008B8389819A810E946E009E838D838BE3BD
:1001600090E02D813E81220F331F322F2B81632F90
:10017000622B4B815C812D813E81242B352B220FFC
:10018000331F220F331F262BFC012083D2CFF8947C
:02019000FFCF9F
:00000001FF
