:100000000C942A000C9448000C9448000C9448006E
:100010000C9448000C9448000C9448000C94480040
:100020000C9448000C9448000C9448000C94480030
:100030000C9448000C9448000C9448000C94480020
:100040000C9448000C9448000C9448000C94480010
:100050000C94480011241FBECFE5D4E0DEBFCDBF15
:1000600010E0A0E6B0E0E2E5F1E003C0C89531960B
:100070000D92A036B107D1F710E0A0E6B0E001C0C4
:100080001D92A036B107E1F70E9486000C94A700EC
:100090000C94000020E030E0AC01022E02C0440FBE
:1000A000551F0A94E2F7437050704330510541F0F8
:1000B0002F5F3F4F2430310579F720E030E002C058
:1000C00021E030E0C90108958F71907021E030E0A7
:1000D0008F31910511F420E030E0C9010895CF93EC
:1000E000DF93EC010E944A00009751F4CF71D07069
:1000F00021E030E0CF31D10529F420E030E002C02A
:1001000021E030E0C901DF91CF9108950F931F9353
:100110008FEF8ABB14BA83B390E00E944A00182F75
:1001200003B383B390E00E946F00AC010F7121E034
:1001300030E00F3111F420E030E0220F331F212B8B
:10014000440F551F440F551F242B2BBBE4CFF894AD
:02015000FFCFDF
:00000001FF
