:100000000C942A000C9434000C9434000C943400AA
:100010000C9434000C9434000C9434000C94340090
:100020000C9434000C9434000C9434000C94340080
:100030000C9434000C9434000C9434000C94340070
:100040000C9434000C9434000C9434000C94340060
:100050000C94340011241FBECFE5D4E0DEBFCDBF29
:100060000E9436000C949C000C9400008FE58DBF1C
:1000700084E08EBF8FEF8ABB80EF84BB35D080E0F9
:1000800090E0A0E6B0E08D939C9384E12DD0803089
:10009000E1F38230A1F784E127D08230E1F38231AD
:1000A00071F700C08FEF8BBB80ED97E038D080E018
:1000B0008BBBE5CF98E0990F8A95E9F795BB0000D7
:1000C000000083B38F70089581E0F4DF8295B82F2C
:1000D00082E0F0DFB80F83E0EDDF8295A82F84E0A7
:1000E000E9DFA80FCD010895682FEEDF8F939F936E
:1000F000862F90E014D0E8DF7F916F9186239723BD
:10010000A0E6B0E07D916C918C939E937095609584
:1001100086239723089501970000E9F70895B6B361
:10012000B795E8F38F939F9386EE93E0F4DF9F916A
:0C0130008F910197A1F70895F894FFCF7C
:02013C000200BF
:00000001FF
