:100000000C942A000C9434000C9434000C943400AA
:100010000C9434000C9434000C9434000C94340090
:100020000C9434000C9434000C9434000C94340080
:100030000C9434000C9434000C9434000C94340070
:100040000C9434000C9434000C9434000C94340060
:100050000C94340011241FBECFE5D4E0DEBFCDBF29
:100060000E9436000C9475000C9400008FE58DBF43
:1000700084E08EBF8FEF8ABB80EF84BB15D08231C6
:10008000E9F700C08FEF8BBB80ED97E021D080E0D7
:100090008BBBF4CF98E0990F8A95E9F795BB0000E8
:1000A000000083B38F70089581E0F4DF8295B82F4C
:1000B00082E0F0DFB80F83E0EDDF8295A82F84E0C7
:1000C000E9DFA80FCD01089501970000E9F7089531
:1000D000B6B3B795E8F38F939F9386EE93E0F4DF82
:0E00E0009F918F910197A1F70895F894FFCF9B
:00000001FF
