:100000000C942A000C9434000C9434000C943400AA
:100010000C9434000C9434000C9434000C94340090
:100020000C9434000C9434000C9434000C94340080
:100030000C9434000C9434000C9434000C94340070
:100040000C9434000C9434000C9434000C94340060
:100050000C94340011241FBECFE5D4E0DEBFCDBF29
:100060000E9436000C9411010C9400008FEF81BBAC
:1000700080EF84BB6BD084E58DD085E48BD081E4A8
:1000800089D08DE487D080E285D080E383D087E378
:1000900081D084E144D010D08030D9F38F9381E0B7
:1000A0007FD08AEF95E0B6D08F9174D0A0E6B0E013
:1000B00080E08D938C93EDCFDC018AE2A0FD089562
:1000C00080E3A1FD089583E2A2FD089584E4A3FDE9
:1000D000089587E3A4FD089588E3A5FD089589E3C5
:1000E000A6FD089583E4A7FD089584E3B0FD089577
:1000F00085E3B1FD089586E3B2FD089582E4B3FD82
:10010000089581E3B4FD089582E3B5FD089583E386
:10011000B6FD089581E4B7FD089588270895682FF6
:1001200055D08F939F93862F90E06AD04FD07F91C8
:100130006F9186239723A0E6B0E07D916C918C931C
:100140009E937095609586239623089588E290E0AB
:1001500057D080E382BB939A939887E290E05AD07D
:1001600080E382BB939A939887E290E053D080E239
:1001700082BB939A939887E290E04CD088E210D0AB
:100180008CE00ED081E00CD08AEF95E043D086E081
:1001900007D00895929A0AD08BE290E03BD0089560
:1001A000929804D087E290E035D008958F9390B371
:1001B0009F70807F890F82BB939A93988F918295CD
:1001C000807F890F82BB939A9398089581E00ED027
:1001D0008295B82F82E00AD0B80F83E007D08295CD
:1001E000A82F84E003D0A80FCD01089598E0990FBF
:1001F0008A95E9F795BB0000000083B38F700895DE
:100200008F939F9386EE93E005D09F918F910197F6
:10021000B9F7089501970000000000000000D1F731
:060220000895F894FFCFE1
:020226000200D4
:00000001FF
