:100000000C942A000C9434000C9434000C943400AA
:100010000C9434000C9434000C9434000C94340090
:100020000C9434000C9434000C9434000C94340080
:100030000C9434000C9434000C9434000C94340070
:100040000C9434000C9434000C9434000C94340060
:100050000C94340011241FBECFE5D4E0DEBFCDBF29
:100060000E9437000C9477000C94000012C08FE5BA
:100070008DBF82E08ABB84E089BF85E08EBD83E0CE
:1000800085BF80E48BBF7894FFCF05D010D017D008
:1000900008951AD00895AF93A0E4AABFAAB7AA1FE3
:1000A000AA1F85E090E019D0B8F38F9108958F933F
:1000B00084EA80932D0082E780932C0008958F932B
:1000C00082E08BBB8F9108958F9380E08BBB8F91E3
:1000D000089501970000E9F708958F939F9386EEA6
:1000E00093E0F7DF9F918F910197B9F70895F89406
:0200F000FFCF40
:00000001FF
