:100000000C942A000C9434000C9434000C943400AA
:100010000C9434000C9434000C9434000C94340090
:100020000C9434000C9434000C9434000C94340080
:100030000C9434000C9434000C9434000C94340070
:100040000C9434000C9434000C9434000C94340060
:100050000C94340011241FBECFE5D4E0DEBFCDBF29
:100060000E9440000C9493000C94000009C01EC034
:1000700000000000000000000000000021C01895F2
:1000800084E08EBF8FE58DBF82E08ABB84E089BFAC
:1000900085E08EBD83E085BF80E48BBF7894A9B3F3
:1000A000A79508F0FCCF1ED026D0F9CFAF93AFB7FD
:1000B000AF9308D017D01FD0AFBFAF9178941895E9
:1000C0001FD01895AF939F938F9385E090E0A0E4A5
:1000D000AABFAAB7AA1FAA1F1CD0C8F38F919F91CD
:1000E000AF9108958F9384EA80932D0082E78093E7
:1000F0002C008F9108958F9382E08BBB8F91089590
:100100008F9380E08BBB8F91089501970000E9F7F2
:1001100008958F939F9386EE93E0F7DF9F918F91E1
:0A0120000197B9F70895F894FFCF96
:00000001FF
