:100000000C942A000C9434000C9434000C943400AA
:100010000C9434000C9434000C9434000C94340090
:100020000C9434000C9434000C9434000C94340080
:100030000C9434000C9434000C9434000C94340070
:100040000C9434000C9434000C9434000C94340060
:100050000C94340011241FBECFE5D4E0DEBFCDBF29
:100060000E9436000C9466000C9400008FE58DBF52
:1000700084E08EBF8FEF8ABBAA27BB27B7BBCC27F4
:10008000A395ABBB84EF91E014D0A03819F0A13058
:1000900019F004C0C1E002C0C0E000C0C03019F0D7
:1000A00000C0A795EECFAA1FECCF01970000E9F79B
:1000B0000895B6B3B795E8F38F939F9386EE93E0D8
:1000C000F4DF9F918F910197A1F70895F894FFCFE6
:00000001FF
