:100000000C942A000C9448000C9448000C9448006E
:100010000C9448000C9448000C9448000C94480040
:100020000C9448000C9448000C9448000C94480030
:100030000C9448000C9448000C9448000C94480020
:100040000C9448000C9448000C9448000C94480010
:100050000C94480011241FBECFE5D4E0DEBFCDBF15
:1000600010E0A0E6B0E0E0E3F3E003C0C89531960D
:100070000D92A036B107D1F710E0A0E6B0E001C0C4
:100080001D92A036B107E1F70E944A000C94960138
:100090000C940000DF93CF93CDB7DEB787E390E0F9
:1000A0002FEFFC01208381E390E0FC01108288E3C4
:1000B00090E021E0FC01208301C0000080E390E09B
:1000C000FC018081882F90E0817090708823B1F1CD
:1000D000000080E390E0FC018081882F90E0817037
:1000E0009070882331F080E390E0FC0180818230C1
:1000F00080F380E390E0FC018081882F90E08170A4
:1001000090700097D9F488E390E0FC018081882FFB
:1001100090E0880F991FF1E080309F0731F488E369
:1001200090E021E0FC01208309C088E390E028E30F
:1001300030E0F9012081220FFC01208380E390E070
:10014000FC018081882F90E082709070009789F187
:10015000000080E390E0FC018081882F90E08270B5
:100160009070009731F080E390E0FC018081843052
:1001700080F380E390E0FC018081882F90E0827022
:1001800090700097B1F488E390E0FC01808186953F
:10019000882331F488E390E020E8FC01208309C043
:1001A00088E390E028E330E0F90120812695FC0106
:1001B000208380E390E0FC018081882F90E08470B0
:1001C0009070009709F44BC0000080E390E0FC01C0
:1001D0008081882F90E084709070009731F080E3E8
:1001E00090E0FC018081883080F380E390E0FC01A6
:1001F0008081882F90E084709070009781F588E36B
:1002000090E0FC018081882F90E0880F991FF1E039
:1002100080309F0731F488E390E022E0FC012083E6
:100220001EC088E390E0FC018081882F90E0880F59
:10023000991F880F991FF1E080309F0731F488E300
:1002400090E021E0FC0120830AC088E390E028E3ED
:1002500030E0F9012081220F220FFC01208380E38E
:1002600090E0FC018081882F90E08870907000976A
:1002700009F440C0000080E390E0FC018081882FF9
:1002800090E088709070009731F080E390E0FC017E
:100290008081803180F380E390E0FC018081882FB1
:1002A00090E088709070009729F588E390E0FC0159
:1002B00080818695882331F488E390E020E4FC0176
:1002C000208318C088E390E0FC01808186958695A4
:1002D000882331F488E390E020E8FC0120830AC001
:1002E00088E390E028E330E0F90120812695269507
:1002F000FC01208380E390E0FC018081882F90E066
:1003000080719070009709F4D8CE000080E390E0EF
:10031000FC018081882F90E0807190700097B1F788
:1003200088E390E021E0FC012083C8CEF894FFCF61
:00000001FF
