:100000000C942A000C9434000C9434000C943400AA
:100010000C9434000C9434000C9434000C94340090
:100020000C9434000C9434000C9434000C94340080
:100030000C9434000C9434000C9434000C94340070
:100040000C9434000C9434000C9434000C94340060
:100050000C94340011241FBECFE5D4E0DEBFCDBF29
:100060000E9439000C9474000C94000002C016C069
:10007000189584E08EBF8FE58DBF83E085BF80E457
:100080008BBF78947727AFEFAABBAA27AA27A1BB7B
:10009000ABBB84E690E017D0A395FACFAF93BFB780
:1000A000BF936F9360B3679548F0AFEFA7BBA4BB56
:1000B000739578BB75BB88EE93E005D0BFBF6F9199
:1000C000BF91AF9118958F939F9386EE93E005D0E3
:1000D0009F918F910197B9F7089501970000000053
:0C00E00000000000D1F70895F894FFCF55
:00000001FF
